{
  "contractName": "NFTMarketplace",
  "abi": [
    {
      "anonymous": false,
      "inputs": [
        {
          "indexed": true,
          "internalType": "uint256",
          "name": "itemId",
          "type": "uint256"
        },
        {
          "indexed": true,
          "internalType": "address",
          "name": "nftContract",
          "type": "address"
        },
        {
          "indexed": true,
          "internalType": "uint256",
          "name": "tokenId",
          "type": "uint256"
        },
        {
          "indexed": false,
          "internalType": "address",
          "name": "seller",
          "type": "address"
        },
        {
          "indexed": false,
          "internalType": "address",
          "name": "owner",
          "type": "address"
        },
        {
          "indexed": false,
          "internalType": "uint256",
          "name": "price",
          "type": "uint256"
        },
        {
          "indexed": false,
          "internalType": "bool",
          "name": "sold",
          "type": "bool"
        }
      ],
      "name": "MarketItemCreated",
      "type": "event"
    },
    {
      "anonymous": false,
      "inputs": [
        {
          "indexed": true,
          "internalType": "uint256",
          "name": "itemId",
          "type": "uint256"
        },
        {
          "indexed": false,
          "internalType": "address",
          "name": "owner",
          "type": "address"
        }
      ],
      "name": "MarketItemSold",
      "type": "event"
    },
    {
      "anonymous": false,
      "inputs": [
        {
          "indexed": true,
          "internalType": "address",
          "name": "previousOwner",
          "type": "address"
        },
        {
          "indexed": true,
          "internalType": "address",
          "name": "newOwner",
          "type": "address"
        }
      ],
      "name": "OwnershipTransferred",
      "type": "event"
    },
    {
      "inputs": [],
      "name": "owner",
      "outputs": [
        {
          "internalType": "address",
          "name": "",
          "type": "address"
        }
      ],
      "stateMutability": "view",
      "type": "function",
      "constant": true
    },
    {
      "inputs": [],
      "name": "renounceOwnership",
      "outputs": [],
      "stateMutability": "nonpayable",
      "type": "function"
    },
    {
      "inputs": [
        {
          "internalType": "address",
          "name": "newOwner",
          "type": "address"
        }
      ],
      "name": "transferOwnership",
      "outputs": [],
      "stateMutability": "nonpayable",
      "type": "function"
    },
    {
      "inputs": [],
      "name": "initialize",
      "outputs": [],
      "stateMutability": "nonpayable",
      "type": "function"
    },
    {
      "inputs": [
        {
          "internalType": "address",
          "name": "_nftContract",
          "type": "address"
        },
        {
          "internalType": "uint256",
          "name": "_tokenId",
          "type": "uint256"
        },
        {
          "internalType": "uint256",
          "name": "_price",
          "type": "uint256"
        }
      ],
      "name": "createMarketItem",
      "outputs": [],
      "stateMutability": "payable",
      "type": "function",
      "payable": true
    },
    {
      "inputs": [
        {
          "internalType": "address",
          "name": "_nftContract",
          "type": "address"
        },
        {
          "internalType": "uint256",
          "name": "_itemId",
          "type": "uint256"
        }
      ],
      "name": "createMarketSale",
      "outputs": [],
      "stateMutability": "payable",
      "type": "function",
      "payable": true
    },
    {
      "inputs": [],
      "name": "fetchMarketItems",
      "outputs": [
        {
          "components": [
            {
              "internalType": "uint256",
              "name": "itemId",
              "type": "uint256"
            },
            {
              "internalType": "address",
              "name": "nftContract",
              "type": "address"
            },
            {
              "internalType": "uint256",
              "name": "tokenId",
              "type": "uint256"
            },
            {
              "internalType": "address payable",
              "name": "seller",
              "type": "address"
            },
            {
              "internalType": "address payable",
              "name": "owner",
              "type": "address"
            },
            {
              "internalType": "uint256",
              "name": "price",
              "type": "uint256"
            },
            {
              "internalType": "bool",
              "name": "sold",
              "type": "bool"
            }
          ],
          "internalType": "struct NFTMarketplace.MarketItem[]",
          "name": "",
          "type": "tuple[]"
        }
      ],
      "stateMutability": "view",
      "type": "function",
      "constant": true
    },
    {
      "inputs": [
        {
          "internalType": "address",
          "name": "",
          "type": "address"
        },
        {
          "internalType": "address",
          "name": "",
          "type": "address"
        },
        {
          "internalType": "uint256",
          "name": "",
          "type": "uint256"
        },
        {
          "internalType": "bytes",
          "name": "",
          "type": "bytes"
        }
      ],
      "name": "onERC721Received",
      "outputs": [
        {
          "internalType": "bytes4",
          "name": "",
          "type": "bytes4"
        }
      ],
      "stateMutability": "nonpayable",
      "type": "function"
    }
  ],
  "bytecode": "0x608060405234801561001057600080fd5b50610eee806100206000396000f3fe60806040526004361061007b5760003560e01c80638129fc1c1161004e5780638129fc1c146101195780638da5cb5b1461012e578063c23b139e14610156578063f2fde38b146101695761007b565b80630f08efe014610080578063150b7a02146100ab57806358eb2df5146100ef578063715018a614610104575b600080fd5b34801561008c57600080fd5b50610095610189565b6040516100a29190610d63565b60405180910390f35b3480156100b757600080fd5b506100d66100c6366004610c33565b630a85bd0160e11b949350505050565b6040516001600160e01b031990911681526020016100a2565b6101026100fd366004610d31565b610369565b005b34801561011057600080fd5b506101026105aa565b34801561012557600080fd5b50610102610610565b34801561013a57600080fd5b506033546040516001600160a01b0390911681526020016100a2565b610102610164366004610d08565b6106d9565b34801561017557600080fd5b50610102610184366004610c12565b6109ee565b606060006101976097610ab6565b905060006101a56098610ab6565b6101af6097610ab6565b6101b99190610e5a565b90506000808267ffffffffffffffff8111156101e557634e487b7160e01b600052604160045260246000fd5b60405190808252806020026020018201604052801561024c57816020015b6040805160e08101825260008082526020808301829052928201819052606082018190526080820181905260a0820181905260c082015282526000199092019101816102035790505b50905060005b8481101561036057600060998161026a846001610e42565b81526020810191909152604001600020600401546001600160a01b0316141561034e57600061029a826001610e42565b600081815260996020908152604091829020825160e0810184528154815260018201546001600160a01b039081169382019390935260028201549381019390935260038101548216606084015260048101549091166080830152600581015460a0830152600681015460ff16151560c083015285519293509185908790811061033357634e487b7160e01b600052603260045260246000fd5b6020908102919091010152610349600186610e42565b945050505b8061035881610e71565b915050610252565b50935050505090565b600260655414156103c15760405162461bcd60e51b815260206004820152601f60248201527f5265656e7472616e637947756172643a207265656e7472616e742063616c6c0060448201526064015b60405180910390fd5b6002606555806104135760405162461bcd60e51b815260206004820152601c60248201527f5072696365206d7573742062652067726561746572207468616e20300000000060448201526064016103b8565b610421609780546001019055565b600061042d6097610ab6565b6040805160e0810182528281526001600160a01b0387811660208084018281528486018a8152336060870181815260006080890181815260a08a018e815260c08b018381528d84526099909852918b902099518a55945160018a018054918a166001600160a01b0319928316179055935160028a015590516003890180549189169185169190911790559251600480890180549290981691909316179095559051600586015590516006909401805494151560ff19909516949094179093559251632142170760e11b81529182015230602482015260448101869052919250906342842e0e90606401600060405180830381600087803b15801561053057600080fd5b505af1158015610544573d6000803e3d6000fd5b505060408051338152600060208201819052818301879052606082015290518693506001600160a01b038816925084917f045dfa01dcba2b36aba1d3dc4a874f4b0c5d2fbeb8d2c4b34a7d88c8d8f929d1919081900360800190a4505060016065555050565b6033546001600160a01b031633146106045760405162461bcd60e51b815260206004820181905260248201527f4f776e61626c653a2063616c6c6572206973206e6f7420746865206f776e657260448201526064016103b8565b61060e6000610abe565b565b600054610100900460ff1661062b5760005460ff161561062f565b303b155b6106925760405162461bcd60e51b815260206004820152602e60248201527f496e697469616c697a61626c653a20636f6e747261637420697320616c72656160448201526d191e481a5b9a5d1a585b1a5e995960921b60648201526084016103b8565b600054610100900460ff161580156106b4576000805461ffff19166101011790555b6106bc610b10565b6106c4610b47565b80156106d6576000805461ff00191690555b50565b6002606554141561072c5760405162461bcd60e51b815260206004820152601f60248201527f5265656e7472616e637947756172643a207265656e7472616e742063616c6c0060448201526064016103b8565b60026065819055600082815260996020526040902060058101549181015460069091015460ff163483146107ca576040805162461bcd60e51b81526020600482015260248101919091527f506c65617365207375626d6974207468652061736b696e67207072696365206960448201527f6e206f7264657220746f20636f6d706c6574652074686520707572636861736560648201526084016103b8565b6001811515141561081d5760405162461bcd60e51b815260206004820152601d60248201527f546869732053616c652068617320616c726564792066696e697368656400000060448201526064016103b8565b6000848152609960205260408082206003015490516001600160a01b039091169034908381818185875af1925050503d8060008114610878576040519150601f19603f3d011682016040523d82523d6000602084013e61087d565b606091505b50909150506001811515146108fa5760405162461bcd60e51b815260206004820152603960248201527f546865726520697320616e206572726f7220696e207472616e7366657272696e60448201527f67207468652066756e647320746f207468652073656c6c65720000000000000060648201526084016103b8565b604051632142170760e11b8152306004820152336024820152604481018490526001600160a01b038716906342842e0e90606401600060405180830381600087803b15801561094857600080fd5b505af115801561095c573d6000803e3d6000fd5b505050600086815260996020526040902060040180546001600160a01b031916331790555061098f609880546001019055565b600085815260996020908152604091829020600601805460ff19166001179055905133815286917f2073b2706c235effb1e3840575370a51749afd8181b4018f93bff955d50792cb910160405180910390a25050600160655550505050565b6033546001600160a01b03163314610a485760405162461bcd60e51b815260206004820181905260248201527f4f776e61626c653a2063616c6c6572206973206e6f7420746865206f776e657260448201526064016103b8565b6001600160a01b038116610aad5760405162461bcd60e51b815260206004820152602660248201527f4f776e61626c653a206e6577206f776e657220697320746865207a65726f206160448201526564647265737360d01b60648201526084016103b8565b6106d681610abe565b80545b919050565b603380546001600160a01b038381166001600160a01b0319831681179093556040519116919082907f8be0079c531659141344cd1fd0a4f28419497f9722a3daafe3b4186f6b6457e090600090a35050565b600054610100900460ff16610b375760405162461bcd60e51b81526004016103b890610df7565b610b3f610b76565b61060e610b9d565b600054610100900460ff16610b6e5760405162461bcd60e51b81526004016103b890610df7565b61060e610bcd565b600054610100900460ff1661060e5760405162461bcd60e51b81526004016103b890610df7565b600054610100900460ff16610bc45760405162461bcd60e51b81526004016103b890610df7565b61060e33610abe565b600054610100900460ff16610bf45760405162461bcd60e51b81526004016103b890610df7565b6001606555565b80356001600160a01b0381168114610ab957600080fd5b600060208284031215610c23578081fd5b610c2c82610bfb565b9392505050565b60008060008060808587031215610c48578283fd5b610c5185610bfb565b9350610c5f60208601610bfb565b925060408501359150606085013567ffffffffffffffff80821115610c82578283fd5b818701915087601f830112610c95578283fd5b813581811115610ca757610ca7610ea2565b604051601f8201601f19908116603f01168101908382118183101715610ccf57610ccf610ea2565b816040528281528a6020848701011115610ce7578586fd5b82602086016020830137918201602001949094529598949750929550505050565b60008060408385031215610d1a578182fd5b610d2383610bfb565b946020939093013593505050565b600080600060608486031215610d45578283fd5b610d4e84610bfb565b95602085013595506040909401359392505050565b602080825282518282018190526000919060409081850190868401855b82811015610dea57815180518552868101516001600160a01b039081168887015286820151878701526060808301518216908701526080808301519091169086015260a0808201519086015260c09081015115159085015260e09093019290850190600101610d80565b5091979650505050505050565b6020808252602b908201527f496e697469616c697a61626c653a20636f6e7472616374206973206e6f74206960408201526a6e697469616c697a696e6760a81b606082015260800190565b60008219821115610e5557610e55610e8c565b500190565b600082821015610e6c57610e6c610e8c565b500390565b6000600019821415610e8557610e85610e8c565b5060010190565b634e487b7160e01b600052601160045260246000fd5b634e487b7160e01b600052604160045260246000fdfea2646970667358221220947a494e706808887593311386f63d4b9213811a4bdd9a821f734d9c037f627264736f6c63430008030033",
  "immutableReferences": {},
  "source": "// SPDX-License-Identifier: MIT\npragma solidity 0.8.3;\n\nimport \"@openzeppelin/contracts/utils/Counters.sol\";\nimport \"@openzeppelin/contracts/token/ERC721/IERC721.sol\";\nimport \"@openzeppelin/contracts/security/ReentrancyGuard.sol\";\nimport \"@openzeppelin/contracts-upgradeable/access/OwnableUpgradeable.sol\";\nimport \"@openzeppelin/contracts-upgradeable/proxy/utils/Initializable.sol\";\nimport \"@openzeppelin/contracts-upgradeable/security/ReentrancyGuardUpgradeable.sol\";\nimport \"@openzeppelin/contracts/token/ERC721/IERC721Receiver.sol\";\n\n/// @title NFT Marketplace\n/// @author kvadlamani92\n/// @notice Allows a user to create, buy and sell NFTs\n/// @dev Functional calls are implemented without side effects. This contract inherits Open Zeppelin's Ownable, Upgradable and Burnable.\ncontract NFTMarketplace is Initializable, OwnableUpgradeable, ReentrancyGuardUpgradeable, IERC721Receiver {\n    using Counters for Counters.Counter;\n\n    /// @dev Counts the number of items in the marketplace\n    Counters.Counter private _itemIds;\n\n    /// @dev Counts the number of sold items in the marketplace\n    Counters.Counter private _itemsSold;\n    \n  function initialize() initializer public {\n        __Ownable_init();\n        __ReentrancyGuard_init();\n    } \n     \n    /// @dev struct to hold a new market item object\n    struct MarketItem {\n         uint itemId;\n         address nftContract;\n         uint256 tokenId;\n         address payable seller;\n         address payable owner;\n         uint256 price;\n         bool sold;\n    }\n     \n    /// @dev Maps itemId to marketItem struct\n    mapping(uint256 => MarketItem) private idToMarketItem;\n     \n    /// @notice Event emitted when a new market item is created\n    /// @param itemId item id of the token created. Increments when a new item is added to the marketplace.\n    /// @param nftContract contract address of the token listed in the marketplace\n    /// @param tokenId id of the token listed in the marketplace\n    /// @param seller address of the seller\n    /// @param owner address of the actual owner who minted the token\n    /// @param price price in wei listed in the marketplace\n    /// @param sold boolean describing if the token is sold\n    event MarketItemCreated (\n        uint indexed itemId,\n        address indexed nftContract,\n        uint256 indexed tokenId,\n        address seller,\n        address owner,\n        uint256 price,\n        bool sold\n    );\n     \n    /// @notice Event emitted when a token is bought by a buyer\n    /// @param itemId itemId of the token bought\n    /// @param owner address of the new owner\n    event MarketItemSold (\n        uint indexed itemId,\n        address owner\n    );\n     \n    /// @notice Creates a new item in the marketplace\n    /// @dev safeguards re-entrancy using openzeppelin's nonReentrant modifier\n    /// @param _nftContract contract address of the item listed in the marketplace\n    /// @param _tokenId tokenId of the item\n    /// @param _price price set by the seller for the item listed in the marketplace\n    function createMarketItem(\n        address _nftContract,\n        uint256 _tokenId,\n        uint256 _price\n        ) \n        public\n        payable\n        nonReentrant \n    {\n        require(_price > 0, \"Price must be greater than 0\");\n        _itemIds.increment();\n        uint256 itemId = _itemIds.current();\n        idToMarketItem[itemId] =  MarketItem(\n            itemId,\n            _nftContract,\n            _tokenId,\n            payable(msg.sender),\n            payable(address(0)),\n            _price,\n            false\n        );\n        IERC721(_nftContract).safeTransferFrom(msg.sender, address(this), _tokenId);\n        emit MarketItemCreated(\n            itemId,\n            _nftContract,\n            _tokenId,\n            msg.sender,\n            address(0),\n            _price,\n            false\n        );\n    }\n\n     /// @notice Makes the sale between buyer and seller and transfers the amount to the seller\n     /// @dev safeguards re-entrancy using openzeppelin's nonReentrant modifier\n     /// @param _nftContract contract address of the item bought by the buyer\n     /// @param _itemId Id of the item bought\n    function createMarketSale(\n        address _nftContract,\n        uint256 _itemId\n        ) \n        public \n        payable\n        nonReentrant \n    {\n        uint price = idToMarketItem[_itemId].price;\n        uint tokenId = idToMarketItem[_itemId].tokenId;\n        bool sold = idToMarketItem[_itemId].sold;\n        require(msg.value == price, \"Please submit the asking price in order to complete the purchase\");\n        require(sold != true, \"This Sale has alredy finished\");\n        (bool sent,) = idToMarketItem[_itemId].seller.call{value: msg.value}(\"\");\n        require(sent == true,\"There is an error in transferring the funds to the seller\");\n        IERC721(_nftContract).safeTransferFrom(address(this), msg.sender, tokenId);\n        idToMarketItem[_itemId].owner = payable(msg.sender);\n        _itemsSold.increment();\n        idToMarketItem[_itemId].sold = true;\n\n        emit MarketItemSold(\n            _itemId,\n            msg.sender\n        );\n    }\n        \n     /// @notice Fetches all the items listed on the marketplace\n     /// @return the list of marketItem structs\n    function fetchMarketItems() public view returns (MarketItem[] memory) {\n        uint itemCount = _itemIds.current();\n        uint unsoldItemCount = _itemIds.current() - _itemsSold.current();\n        uint currentIndex = 0;\n\n        MarketItem[] memory items = new MarketItem[](unsoldItemCount);\n        for (uint i = 0; i < itemCount; i++) {\n            if (idToMarketItem[i + 1].owner == address(0)) {\n                uint currentId = i + 1;\n                MarketItem storage currentItem = idToMarketItem[currentId];\n                items[currentIndex] = currentItem;\n                currentIndex += 1;\n            }\n        }\n        return items;\n    }\n\n    /// @dev Always returns `IERC721Receiver.onERC721Received.selector`\n    function onERC721Received(address, address, uint256, bytes memory) public virtual override returns (bytes4) {\n        return this.onERC721Received.selector;\n    }\n}",
  "sourcePath": "/Users/karthikvadlamani/ConsensysDeveloperBootcamp/blockchain-developer-bootcamp-final-project/truffle/contracts/NFTMarketplace.sol",
  "compiler": {
    "name": "solc",
    "version": "0.8.3+commit.8d00100c.Linux.g++"
  },
  "schemaVersion": "3.4.1",
  "updatedAt": "2022-01-16T20:44:55.494Z",
  "networkType": "ethereum",
  "devdoc": {
    "author": "kvadlamani92",
    "details": "Functional calls are implemented without side effects. This contract inherits Open Zeppelin's Ownable, Upgradable and Burnable.",
    "events": {
      "MarketItemCreated(uint256,address,uint256,address,address,uint256,bool)": {
        "params": {
          "itemId": "item id of the token created. Increments when a new item is added to the marketplace.",
          "nftContract": "contract address of the token listed in the marketplace",
          "owner": "address of the actual owner who minted the token",
          "price": "price in wei listed in the marketplace",
          "seller": "address of the seller",
          "sold": "boolean describing if the token is sold",
          "tokenId": "id of the token listed in the marketplace"
        }
      },
      "MarketItemSold(uint256,address)": {
        "params": {
          "itemId": "itemId of the token bought",
          "owner": "address of the new owner"
        }
      }
    },
    "kind": "dev",
    "methods": {
      "createMarketItem(address,uint256,uint256)": {
        "details": "safeguards re-entrancy using openzeppelin's nonReentrant modifier",
        "params": {
          "_nftContract": "contract address of the item listed in the marketplace",
          "_price": "price set by the seller for the item listed in the marketplace",
          "_tokenId": "tokenId of the item"
        }
      },
      "createMarketSale(address,uint256)": {
        "details": "safeguards re-entrancy using openzeppelin's nonReentrant modifier",
        "params": {
          "_itemId": "Id of the item bought",
          "_nftContract": "contract address of the item bought by the buyer"
        }
      },
      "fetchMarketItems()": {
        "returns": {
          "_0": "the list of marketItem structs"
        }
      },
      "onERC721Received(address,address,uint256,bytes)": {
        "details": "Always returns `IERC721Receiver.onERC721Received.selector`"
      },
      "owner()": {
        "details": "Returns the address of the current owner."
      },
      "renounceOwnership()": {
        "details": "Leaves the contract without owner. It will not be possible to call `onlyOwner` functions anymore. Can only be called by the current owner. NOTE: Renouncing ownership will leave the contract without an owner, thereby removing any functionality that is only available to the owner."
      },
      "transferOwnership(address)": {
        "details": "Transfers ownership of the contract to a new account (`newOwner`). Can only be called by the current owner."
      }
    },
    "stateVariables": {
      "_itemIds": {
        "details": "Counts the number of items in the marketplace"
      },
      "_itemsSold": {
        "details": "Counts the number of sold items in the marketplace"
      },
      "idToMarketItem": {
        "details": "Maps itemId to marketItem struct"
      }
    },
    "title": "NFT Marketplace",
    "version": 1
  },
  "userdoc": {
    "events": {
      "MarketItemCreated(uint256,address,uint256,address,address,uint256,bool)": {
        "notice": "Event emitted when a new market item is created"
      },
      "MarketItemSold(uint256,address)": {
        "notice": "Event emitted when a token is bought by a buyer"
      }
    },
    "kind": "user",
    "methods": {
      "createMarketItem(address,uint256,uint256)": {
        "notice": "Creates a new item in the marketplace"
      },
      "createMarketSale(address,uint256)": {
        "notice": "Makes the sale between buyer and seller and transfers the amount to the seller"
      },
      "fetchMarketItems()": {
        "notice": "Fetches all the items listed on the marketplace"
      }
    },
    "notice": "Allows a user to create, buy and sell NFTs",
    "version": 1
  }
}