{
  "contractName": "NFTContract",
  "abi": [
    {
      "anonymous": false,
      "inputs": [
        {
          "indexed": true,
          "internalType": "address",
          "name": "owner",
          "type": "address"
        },
        {
          "indexed": true,
          "internalType": "address",
          "name": "approved",
          "type": "address"
        },
        {
          "indexed": true,
          "internalType": "uint256",
          "name": "tokenId",
          "type": "uint256"
        }
      ],
      "name": "Approval",
      "type": "event"
    },
    {
      "anonymous": false,
      "inputs": [
        {
          "indexed": true,
          "internalType": "address",
          "name": "owner",
          "type": "address"
        },
        {
          "indexed": true,
          "internalType": "address",
          "name": "operator",
          "type": "address"
        },
        {
          "indexed": false,
          "internalType": "bool",
          "name": "approved",
          "type": "bool"
        }
      ],
      "name": "ApprovalForAll",
      "type": "event"
    },
    {
      "anonymous": false,
      "inputs": [
        {
          "indexed": true,
          "internalType": "address",
          "name": "previousOwner",
          "type": "address"
        },
        {
          "indexed": true,
          "internalType": "address",
          "name": "newOwner",
          "type": "address"
        }
      ],
      "name": "OwnershipTransferred",
      "type": "event"
    },
    {
      "anonymous": false,
      "inputs": [
        {
          "indexed": true,
          "internalType": "address",
          "name": "from",
          "type": "address"
        },
        {
          "indexed": true,
          "internalType": "address",
          "name": "to",
          "type": "address"
        },
        {
          "indexed": true,
          "internalType": "uint256",
          "name": "tokenId",
          "type": "uint256"
        }
      ],
      "name": "Transfer",
      "type": "event"
    },
    {
      "inputs": [
        {
          "internalType": "address",
          "name": "to",
          "type": "address"
        },
        {
          "internalType": "uint256",
          "name": "tokenId",
          "type": "uint256"
        }
      ],
      "name": "approve",
      "outputs": [],
      "stateMutability": "nonpayable",
      "type": "function"
    },
    {
      "inputs": [
        {
          "internalType": "address",
          "name": "owner",
          "type": "address"
        }
      ],
      "name": "balanceOf",
      "outputs": [
        {
          "internalType": "uint256",
          "name": "",
          "type": "uint256"
        }
      ],
      "stateMutability": "view",
      "type": "function",
      "constant": true
    },
    {
      "inputs": [
        {
          "internalType": "uint256",
          "name": "tokenId",
          "type": "uint256"
        }
      ],
      "name": "burn",
      "outputs": [],
      "stateMutability": "nonpayable",
      "type": "function"
    },
    {
      "inputs": [
        {
          "internalType": "uint256",
          "name": "tokenId",
          "type": "uint256"
        }
      ],
      "name": "getApproved",
      "outputs": [
        {
          "internalType": "address",
          "name": "",
          "type": "address"
        }
      ],
      "stateMutability": "view",
      "type": "function",
      "constant": true
    },
    {
      "inputs": [
        {
          "internalType": "address",
          "name": "owner",
          "type": "address"
        },
        {
          "internalType": "address",
          "name": "operator",
          "type": "address"
        }
      ],
      "name": "isApprovedForAll",
      "outputs": [
        {
          "internalType": "bool",
          "name": "",
          "type": "bool"
        }
      ],
      "stateMutability": "view",
      "type": "function",
      "constant": true
    },
    {
      "inputs": [],
      "name": "name",
      "outputs": [
        {
          "internalType": "string",
          "name": "",
          "type": "string"
        }
      ],
      "stateMutability": "view",
      "type": "function",
      "constant": true
    },
    {
      "inputs": [],
      "name": "owner",
      "outputs": [
        {
          "internalType": "address",
          "name": "",
          "type": "address"
        }
      ],
      "stateMutability": "view",
      "type": "function",
      "constant": true
    },
    {
      "inputs": [
        {
          "internalType": "uint256",
          "name": "tokenId",
          "type": "uint256"
        }
      ],
      "name": "ownerOf",
      "outputs": [
        {
          "internalType": "address",
          "name": "",
          "type": "address"
        }
      ],
      "stateMutability": "view",
      "type": "function",
      "constant": true
    },
    {
      "inputs": [],
      "name": "renounceOwnership",
      "outputs": [],
      "stateMutability": "nonpayable",
      "type": "function"
    },
    {
      "inputs": [
        {
          "internalType": "address",
          "name": "from",
          "type": "address"
        },
        {
          "internalType": "address",
          "name": "to",
          "type": "address"
        },
        {
          "internalType": "uint256",
          "name": "tokenId",
          "type": "uint256"
        }
      ],
      "name": "safeTransferFrom",
      "outputs": [],
      "stateMutability": "nonpayable",
      "type": "function"
    },
    {
      "inputs": [
        {
          "internalType": "address",
          "name": "from",
          "type": "address"
        },
        {
          "internalType": "address",
          "name": "to",
          "type": "address"
        },
        {
          "internalType": "uint256",
          "name": "tokenId",
          "type": "uint256"
        },
        {
          "internalType": "bytes",
          "name": "_data",
          "type": "bytes"
        }
      ],
      "name": "safeTransferFrom",
      "outputs": [],
      "stateMutability": "nonpayable",
      "type": "function"
    },
    {
      "inputs": [
        {
          "internalType": "address",
          "name": "operator",
          "type": "address"
        },
        {
          "internalType": "bool",
          "name": "approved",
          "type": "bool"
        }
      ],
      "name": "setApprovalForAll",
      "outputs": [],
      "stateMutability": "nonpayable",
      "type": "function"
    },
    {
      "inputs": [
        {
          "internalType": "bytes4",
          "name": "interfaceId",
          "type": "bytes4"
        }
      ],
      "name": "supportsInterface",
      "outputs": [
        {
          "internalType": "bool",
          "name": "",
          "type": "bool"
        }
      ],
      "stateMutability": "view",
      "type": "function",
      "constant": true
    },
    {
      "inputs": [],
      "name": "symbol",
      "outputs": [
        {
          "internalType": "string",
          "name": "",
          "type": "string"
        }
      ],
      "stateMutability": "view",
      "type": "function",
      "constant": true
    },
    {
      "inputs": [
        {
          "internalType": "address",
          "name": "from",
          "type": "address"
        },
        {
          "internalType": "address",
          "name": "to",
          "type": "address"
        },
        {
          "internalType": "uint256",
          "name": "tokenId",
          "type": "uint256"
        }
      ],
      "name": "transferFrom",
      "outputs": [],
      "stateMutability": "nonpayable",
      "type": "function"
    },
    {
      "inputs": [
        {
          "internalType": "address",
          "name": "newOwner",
          "type": "address"
        }
      ],
      "name": "transferOwnership",
      "outputs": [],
      "stateMutability": "nonpayable",
      "type": "function"
    },
    {
      "inputs": [],
      "name": "initialize",
      "outputs": [],
      "stateMutability": "nonpayable",
      "type": "function"
    },
    {
      "inputs": [
        {
          "internalType": "address",
          "name": "_to",
          "type": "address"
        },
        {
          "internalType": "string",
          "name": "_uri",
          "type": "string"
        }
      ],
      "name": "safeMint",
      "outputs": [],
      "stateMutability": "nonpayable",
      "type": "function"
    },
    {
      "inputs": [
        {
          "internalType": "uint256",
          "name": "_tokenId",
          "type": "uint256"
        }
      ],
      "name": "tokenURI",
      "outputs": [
        {
          "internalType": "string",
          "name": "",
          "type": "string"
        }
      ],
      "stateMutability": "view",
      "type": "function",
      "constant": true
    }
  ],
  "bytecode": "0x608060405234801561001057600080fd5b50611d8a806100206000396000f3fe608060405234801561001057600080fd5b50600436106101215760003560e01c8063715018a6116100ad578063b88d4fde11610071578063b88d4fde1461024c578063c87b56dd1461025f578063d204c45e14610272578063e985e9c514610285578063f2fde38b146102c157610121565b8063715018a6146102105780638129fc1c146102185780638da5cb5b1461022057806395d89b4114610231578063a22cb4651461023957610121565b806323b872dd116100f457806323b872dd146101a357806342842e0e146101b657806342966c68146101c95780636352211e146101dc57806370a08231146101ef57610121565b806301ffc9a71461012657806306fdde031461014e578063081812fc14610163578063095ea7b31461018e575b600080fd5b610139610134366004611a3a565b6102d4565b60405190151581526020015b60405180910390f35b610156610328565b6040516101459190611b22565b610176610171366004611a72565b6103ba565b6040516001600160a01b039091168152602001610145565b6101a161019c366004611a11565b610447565b005b6101a16101b13660046118c4565b61055d565b6101a16101c43660046118c4565b61058f565b6101a16101d7366004611a72565b6105aa565b6101766101ea366004611a72565b610624565b6102026101fd366004611878565b61069b565b604051908152602001610145565b6101a1610722565b6101a1610788565b60fb546001600160a01b0316610176565b61015661089c565b6101a1610247366004611978565b6108ab565b6101a161025a3660046118ff565b6108ba565b61015661026d366004611a72565b6108f2565b6101a16102803660046119b2565b6108fd565b610139610293366004611892565b6001600160a01b039182166000908152606a6020908152604080832093909416825291909152205460ff1690565b6101a16102cf366004611878565b61092e565b60006001600160e01b031982166380ac58cd60e01b148061030557506001600160e01b03198216635b5e139f60e01b145b8061032057506301ffc9a760e01b6001600160e01b03198316145b90505b919050565b60606065805461033790611c92565b80601f016020809104026020016040519081016040528092919081815260200182805461036390611c92565b80156103b05780601f10610385576101008083540402835291602001916103b0565b820191906000526020600020905b81548152906001019060200180831161039357829003601f168201915b5050505050905090565b60006103c5826109f6565b61042b5760405162461bcd60e51b815260206004820152602c60248201527f4552433732313a20617070726f76656420717565727920666f72206e6f6e657860448201526b34b9ba32b73a103a37b5b2b760a11b60648201526084015b60405180910390fd5b506000908152606960205260409020546001600160a01b031690565b600061045282610624565b9050806001600160a01b0316836001600160a01b031614156104c05760405162461bcd60e51b815260206004820152602160248201527f4552433732313a20617070726f76616c20746f2063757272656e74206f776e656044820152603960f91b6064820152608401610422565b336001600160a01b03821614806104dc57506104dc8133610293565b61054e5760405162461bcd60e51b815260206004820152603860248201527f4552433732313a20617070726f76652063616c6c6572206973206e6f74206f7760448201527f6e6572206e6f7220617070726f76656420666f7220616c6c00000000000000006064820152608401610422565b6105588383610a13565b505050565b610568335b82610a81565b6105845760405162461bcd60e51b815260040161042290611b87565b610558838383610b6b565b610558838383604051806020016040528060008152506108ba565b6105b333610562565b6106185760405162461bcd60e51b815260206004820152603060248201527f4552433732314275726e61626c653a2063616c6c6572206973206e6f74206f7760448201526f1b995c881b9bdc88185c1c1c9bdd995960821b6064820152608401610422565b61062181610d0b565b50565b6000818152606760205260408120546001600160a01b0316806103205760405162461bcd60e51b815260206004820152602960248201527f4552433732313a206f776e657220717565727920666f72206e6f6e657869737460448201526832b73a103a37b5b2b760b91b6064820152608401610422565b60006001600160a01b0382166107065760405162461bcd60e51b815260206004820152602a60248201527f4552433732313a2062616c616e636520717565727920666f7220746865207a65604482015269726f206164647265737360b01b6064820152608401610422565b506001600160a01b031660009081526068602052604090205490565b60fb546001600160a01b0316331461077c5760405162461bcd60e51b815260206004820181905260248201527f4f776e61626c653a2063616c6c6572206973206e6f7420746865206f776e65726044820152606401610422565b6107866000610d14565b565b600054610100900460ff166107a35760005460ff16156107a7565b303b155b61080a5760405162461bcd60e51b815260206004820152602e60248201527f496e697469616c697a61626c653a20636f6e747261637420697320616c72656160448201526d191e481a5b9a5d1a585b1a5e995960921b6064820152608401610422565b600054610100900460ff1615801561082c576000805461ffff19166101011790555b6108706040518060400160405280600781526020016626bcaa37b5b2b760c91b815250604051806040016040528060038152602001624d544b60e81b815250610d66565b610878610da7565b610880610da7565b610888610de6565b8015610621576000805461ff001916905550565b60606066805461033790611c92565b6108b6338383610e1d565b5050565b6108c43383610a81565b6108e05760405162461bcd60e51b815260040161042290611b87565b6108ec84848484610eec565b50505050565b606061032082610f1f565b600061090961012d5490565b905061091a61012d80546001019055565b610924838261108f565b61055881836110a9565b60fb546001600160a01b031633146109885760405162461bcd60e51b815260206004820181905260248201527f4f776e61626c653a2063616c6c6572206973206e6f7420746865206f776e65726044820152606401610422565b6001600160a01b0381166109ed5760405162461bcd60e51b815260206004820152602660248201527f4f776e61626c653a206e6577206f776e657220697320746865207a65726f206160448201526564647265737360d01b6064820152608401610422565b61062181610d14565b6000908152606760205260409020546001600160a01b0316151590565b600081815260696020526040902080546001600160a01b0319166001600160a01b0384169081179091558190610a4882610624565b6001600160a01b03167f8c5be1e5ebec7d5bd14f71427d1e84f3dd0314c0f7b2291e5b200ac8c7c3b92560405160405180910390a45050565b6000610a8c826109f6565b610aed5760405162461bcd60e51b815260206004820152602c60248201527f4552433732313a206f70657261746f7220717565727920666f72206e6f6e657860448201526b34b9ba32b73a103a37b5b2b760a11b6064820152608401610422565b6000610af883610624565b9050806001600160a01b0316846001600160a01b03161480610b335750836001600160a01b0316610b28846103ba565b6001600160a01b0316145b80610b6357506001600160a01b038082166000908152606a602090815260408083209388168352929052205460ff165b949350505050565b826001600160a01b0316610b7e82610624565b6001600160a01b031614610be65760405162461bcd60e51b815260206004820152602960248201527f4552433732313a207472616e73666572206f6620746f6b656e2074686174206960448201526839903737ba1037bbb760b91b6064820152608401610422565b6001600160a01b038216610c485760405162461bcd60e51b8152602060048201526024808201527f4552433732313a207472616e7366657220746f20746865207a65726f206164646044820152637265737360e01b6064820152608401610422565b610c53600082610a13565b6001600160a01b0383166000908152606860205260408120805460019290610c7c908490611c4f565b90915550506001600160a01b0382166000908152606860205260408120805460019290610caa908490611c23565b909155505060008181526067602052604080822080546001600160a01b0319166001600160a01b0386811691821790925591518493918716917fddf252ad1be2c89b69c2b068fc378daa952ba7f163c4a11628f55a4df523b3ef91a4505050565b61062181611134565b60fb80546001600160a01b038381166001600160a01b0319831681179093556040519116919082907f8be0079c531659141344cd1fd0a4f28419497f9722a3daafe3b4186f6b6457e090600090a35050565b600054610100900460ff16610d8d5760405162461bcd60e51b815260040161042290611bd8565b610d95611174565b610d9d611174565b6108b6828261119b565b600054610100900460ff16610dce5760405162461bcd60e51b815260040161042290611bd8565b610dd6611174565b610dde611174565b610786611174565b600054610100900460ff16610e0d5760405162461bcd60e51b815260040161042290611bd8565b610e15611174565b6107866111e9565b816001600160a01b0316836001600160a01b03161415610e7f5760405162461bcd60e51b815260206004820152601960248201527f4552433732313a20617070726f766520746f2063616c6c6572000000000000006044820152606401610422565b6001600160a01b038381166000818152606a6020908152604080832094871680845294825291829020805460ff191686151590811790915591519182527f17307eab39ab6107e8899845ad3d59bd9653f200f220920489ca2b5937696c31910160405180910390a3505050565b610ef7848484610b6b565b610f0384848484611219565b6108ec5760405162461bcd60e51b815260040161042290611b35565b6060610f2a826109f6565b610f905760405162461bcd60e51b815260206004820152603160248201527f45524337323155524953746f726167653a2055524920717565727920666f72206044820152703737b732bc34b9ba32b73a103a37b5b2b760791b6064820152608401610422565b60008281526097602052604081208054610fa990611c92565b80601f0160208091040260200160405190810160405280929190818152602001828054610fd590611c92565b80156110225780601f10610ff757610100808354040283529160200191611022565b820191906000526020600020905b81548152906001019060200180831161100557829003601f168201915b50505050509050600061104060408051602081019091526000815290565b905080516000141561105457509050610323565b81511561108657808260405160200161106e929190611ab6565b60405160208183030381529060405292505050610323565b610b6384611326565b6108b68282604051806020016040528060008152506113fe565b6110b2826109f6565b6111155760405162461bcd60e51b815260206004820152602e60248201527f45524337323155524953746f726167653a2055524920736574206f66206e6f6e60448201526d32bc34b9ba32b73a103a37b5b2b760911b6064820152608401610422565b600082815260976020908152604090912082516105589284019061171a565b61113d81611431565b6000818152609760205260409020805461115690611c92565b1590506106215760008181526097602052604081206106219161179e565b600054610100900460ff166107865760405162461bcd60e51b815260040161042290611bd8565b600054610100900460ff166111c25760405162461bcd60e51b815260040161042290611bd8565b81516111d590606590602085019061171a565b50805161055890606690602084019061171a565b600054610100900460ff166112105760405162461bcd60e51b815260040161042290611bd8565b61078633610d14565b60006001600160a01b0384163b1561131b57604051630a85bd0160e11b81526001600160a01b0385169063150b7a029061125d903390899088908890600401611ae5565b602060405180830381600087803b15801561127757600080fd5b505af19250505080156112a7575060408051601f3d908101601f191682019092526112a491810190611a56565b60015b611301573d8080156112d5576040519150601f19603f3d011682016040523d82523d6000602084013e6112da565b606091505b5080516112f95760405162461bcd60e51b815260040161042290611b35565b805181602001fd5b6001600160e01b031916630a85bd0160e11b149050610b63565b506001949350505050565b6060611331826109f6565b6113955760405162461bcd60e51b815260206004820152602f60248201527f4552433732314d657461646174613a2055524920717565727920666f72206e6f60448201526e3732bc34b9ba32b73a103a37b5b2b760891b6064820152608401610422565b60006113ac60408051602081019091526000815290565b905060008151116113cc57604051806020016040528060008152506113f7565b806113d6846114cc565b6040516020016113e7929190611ab6565b6040516020818303038152906040525b9392505050565b61140883836115e7565b6114156000848484611219565b6105585760405162461bcd60e51b815260040161042290611b35565b600061143c82610624565b9050611449600083610a13565b6001600160a01b0381166000908152606860205260408120805460019290611472908490611c4f565b909155505060008281526067602052604080822080546001600160a01b0319169055518391906001600160a01b038416907fddf252ad1be2c89b69c2b068fc378daa952ba7f163c4a11628f55a4df523b3ef908390a45050565b6060816114f157506040805180820190915260018152600360fc1b6020820152610323565b8160005b811561151b578061150581611ccd565b91506115149050600a83611c3b565b91506114f5565b60008167ffffffffffffffff81111561154457634e487b7160e01b600052604160045260246000fd5b6040519080825280601f01601f19166020018201604052801561156e576020820181803683370190505b5090505b8415610b6357611583600183611c4f565b9150611590600a86611ce8565b61159b906030611c23565b60f81b8183815181106115be57634e487b7160e01b600052603260045260246000fd5b60200101906001600160f81b031916908160001a9053506115e0600a86611c3b565b9450611572565b6001600160a01b03821661163d5760405162461bcd60e51b815260206004820181905260248201527f4552433732313a206d696e7420746f20746865207a65726f20616464726573736044820152606401610422565b611646816109f6565b156116935760405162461bcd60e51b815260206004820152601c60248201527f4552433732313a20746f6b656e20616c7265616479206d696e746564000000006044820152606401610422565b6001600160a01b03821660009081526068602052604081208054600192906116bc908490611c23565b909155505060008181526067602052604080822080546001600160a01b0319166001600160a01b03861690811790915590518392907fddf252ad1be2c89b69c2b068fc378daa952ba7f163c4a11628f55a4df523b3ef908290a45050565b82805461172690611c92565b90600052602060002090601f016020900481019282611748576000855561178e565b82601f1061176157805160ff191683800117855561178e565b8280016001018555821561178e579182015b8281111561178e578251825591602001919060010190611773565b5061179a9291506117d6565b5090565b5080546117aa90611c92565b6000825580601f106117bc5750610621565b601f01602090049060005260206000209081019061062191905b5b8082111561179a57600081556001016117d7565b600067ffffffffffffffff8084111561180657611806611d28565b604051601f8501601f19908116603f0116810190828211818310171561182e5761182e611d28565b8160405280935085815286868601111561184757600080fd5b858560208301376000602087830101525050509392505050565b80356001600160a01b038116811461032357600080fd5b600060208284031215611889578081fd5b6113f782611861565b600080604083850312156118a4578081fd5b6118ad83611861565b91506118bb60208401611861565b90509250929050565b6000806000606084860312156118d8578081fd5b6118e184611861565b92506118ef60208501611861565b9150604084013590509250925092565b60008060008060808587031215611914578081fd5b61191d85611861565b935061192b60208601611861565b925060408501359150606085013567ffffffffffffffff81111561194d578182fd5b8501601f8101871361195d578182fd5b61196c878235602084016117eb565b91505092959194509250565b6000806040838503121561198a578182fd5b61199383611861565b9150602083013580151581146119a7578182fd5b809150509250929050565b600080604083850312156119c4578182fd5b6119cd83611861565b9150602083013567ffffffffffffffff8111156119e8578182fd5b8301601f810185136119f8578182fd5b611a07858235602084016117eb565b9150509250929050565b60008060408385031215611a23578182fd5b611a2c83611861565b946020939093013593505050565b600060208284031215611a4b578081fd5b81356113f781611d3e565b600060208284031215611a67578081fd5b81516113f781611d3e565b600060208284031215611a83578081fd5b5035919050565b60008151808452611aa2816020860160208601611c66565b601f01601f19169290920160200192915050565b60008351611ac8818460208801611c66565b835190830190611adc818360208801611c66565b01949350505050565b6001600160a01b0385811682528416602082015260408101839052608060608201819052600090611b1890830184611a8a565b9695505050505050565b6000602082526113f76020830184611a8a565b60208082526032908201527f4552433732313a207472616e7366657220746f206e6f6e20455243373231526560408201527131b2b4bb32b91034b6b83632b6b2b73a32b960711b606082015260800190565b60208082526031908201527f4552433732313a207472616e736665722063616c6c6572206973206e6f74206f6040820152701ddb995c881b9bdc88185c1c1c9bdd9959607a1b606082015260800190565b6020808252602b908201527f496e697469616c697a61626c653a20636f6e7472616374206973206e6f74206960408201526a6e697469616c697a696e6760a81b606082015260800190565b60008219821115611c3657611c36611cfc565b500190565b600082611c4a57611c4a611d12565b500490565b600082821015611c6157611c61611cfc565b500390565b60005b83811015611c81578181015183820152602001611c69565b838111156108ec5750506000910152565b600181811c90821680611ca657607f821691505b60208210811415611cc757634e487b7160e01b600052602260045260246000fd5b50919050565b6000600019821415611ce157611ce1611cfc565b5060010190565b600082611cf757611cf7611d12565b500690565b634e487b7160e01b600052601160045260246000fd5b634e487b7160e01b600052601260045260246000fd5b634e487b7160e01b600052604160045260246000fd5b6001600160e01b03198116811461062157600080fdfea26469706673582212208b413e3989b95c1bd4469c3fc32448ac9314c1b4eaee1d6de65d2bae429c84c764736f6c63430008030033",
  "immutableReferences": {},
  "source": "// SPDX-License-Identifier: MIT\npragma solidity 0.8.3;\n\nimport \"@openzeppelin/contracts-upgradeable/token/ERC721/ERC721Upgradeable.sol\";\nimport \"@openzeppelin/contracts-upgradeable/token/ERC721/extensions/ERC721URIStorageUpgradeable.sol\";\nimport \"@openzeppelin/contracts-upgradeable/token/ERC721/extensions/ERC721BurnableUpgradeable.sol\";\nimport \"@openzeppelin/contracts-upgradeable/access/OwnableUpgradeable.sol\";\nimport \"@openzeppelin/contracts-upgradeable/utils/CountersUpgradeable.sol\";\n\n/// @title NFT token contract\n/// @author kvadlamani92\n/// @notice Contract class to create NFT token\n/// @dev Functional calls are implemented without side effects. This contract inherits Open Zeppelin's Ownable, Upgradable and Burnable.\ncontract NFTContract is ERC721Upgradeable, ERC721URIStorageUpgradeable, ERC721BurnableUpgradeable, OwnableUpgradeable {\n\n    using CountersUpgradeable for CountersUpgradeable.Counter;\n\n    /// @dev Counter object to count number of NFT tokens created\n    CountersUpgradeable.Counter private _tokenIdCounter;\n    \n    function initialize() initializer public {\n        __ERC721_init(\"MyToken\", \"MTK\");\n        __ERC721URIStorage_init();\n        __ERC721Burnable_init();\n        __Ownable_init();\n    }\n\n    /// @notice Mint a new token\n    /// @param _to address of the user minting the token\n    /// @param _uri token uri of the NFT token\n    function safeMint(address _to, string memory _uri) public {\n        uint256 tokenId = _tokenIdCounter.current();\n        _tokenIdCounter.increment();\n        \n        _safeMint(_to, tokenId);\n        _setTokenURI(tokenId, _uri);\n    }\n\n    // The following functions are overrides required by Solidity.\n    \n    /// @dev overriden internal function to burn one's NFT\n    /// @param _tokenId tokenId of the NFT to burn\n    function _burn(uint256 _tokenId)\n        internal\n        override(ERC721Upgradeable, ERC721URIStorageUpgradeable)\n    {\n        super._burn(_tokenId);\n    }\n\n    /// @dev Returns the Uniform Resource Identifier (URI) for the tokenId.\n    /// @param _tokenId tokenId of the NFT to get the URI for\n    /// @return the URI string\n    function tokenURI(uint256 _tokenId)\n        public\n        view\n        override(ERC721Upgradeable, ERC721URIStorageUpgradeable)\n        returns (string memory)\n    {\n        return super.tokenURI(_tokenId);\n    }\n}\n",
  "sourcePath": "/Users/karthikvadlamani/ConsensysDeveloperBootcamp/blockchain-developer-bootcamp-final-project/truffle/contracts/NFTContract.sol",
  "compiler": {
    "name": "solc",
    "version": "0.8.3+commit.8d00100c.Linux.g++"
  },
  "schemaVersion": "3.4.1",
  "updatedAt": "2022-01-15T11:58:14.108Z",
  "networkType": "ethereum",
  "devdoc": {
    "author": "kvadlamani92",
    "details": "Functional calls are implemented without side effects. This contract inherits Open Zeppelin's Ownable, Upgradable and Burnable.",
    "kind": "dev",
    "methods": {
      "approve(address,uint256)": {
        "details": "See {IERC721-approve}."
      },
      "balanceOf(address)": {
        "details": "See {IERC721-balanceOf}."
      },
      "burn(uint256)": {
        "details": "Burns `tokenId`. See {ERC721-_burn}. Requirements: - The caller must own `tokenId` or be an approved operator."
      },
      "getApproved(uint256)": {
        "details": "See {IERC721-getApproved}."
      },
      "isApprovedForAll(address,address)": {
        "details": "See {IERC721-isApprovedForAll}."
      },
      "name()": {
        "details": "See {IERC721Metadata-name}."
      },
      "owner()": {
        "details": "Returns the address of the current owner."
      },
      "ownerOf(uint256)": {
        "details": "See {IERC721-ownerOf}."
      },
      "renounceOwnership()": {
        "details": "Leaves the contract without owner. It will not be possible to call `onlyOwner` functions anymore. Can only be called by the current owner. NOTE: Renouncing ownership will leave the contract without an owner, thereby removing any functionality that is only available to the owner."
      },
      "safeMint(address,string)": {
        "params": {
          "_to": "address of the user minting the token",
          "_uri": "token uri of the NFT token"
        }
      },
      "safeTransferFrom(address,address,uint256)": {
        "details": "See {IERC721-safeTransferFrom}."
      },
      "safeTransferFrom(address,address,uint256,bytes)": {
        "details": "See {IERC721-safeTransferFrom}."
      },
      "setApprovalForAll(address,bool)": {
        "details": "See {IERC721-setApprovalForAll}."
      },
      "supportsInterface(bytes4)": {
        "details": "See {IERC165-supportsInterface}."
      },
      "symbol()": {
        "details": "See {IERC721Metadata-symbol}."
      },
      "tokenURI(uint256)": {
        "details": "Returns the Uniform Resource Identifier (URI) for the tokenId.",
        "params": {
          "_tokenId": "tokenId of the NFT to get the URI for"
        },
        "returns": {
          "_0": "the URI string"
        }
      },
      "transferFrom(address,address,uint256)": {
        "details": "See {IERC721-transferFrom}."
      },
      "transferOwnership(address)": {
        "details": "Transfers ownership of the contract to a new account (`newOwner`). Can only be called by the current owner."
      }
    },
    "stateVariables": {
      "_tokenIdCounter": {
        "details": "Counter object to count number of NFT tokens created"
      }
    },
    "title": "NFT token contract",
    "version": 1
  },
  "userdoc": {
    "kind": "user",
    "methods": {
      "safeMint(address,string)": {
        "notice": "Mint a new token"
      }
    },
    "notice": "Contract class to create NFT token",
    "version": 1
  }
}